{
  "contractName": "BlockchainLottery",
  "abi": [
    {
      "inputs": [
        {
          "internalType": "uint256",
          "name": "_ticketPriceInWei",
          "type": "uint256"
        },
        {
          "internalType": "uint256",
          "name": "_minPlayers",
          "type": "uint256"
        }
      ],
      "stateMutability": "nonpayable",
      "type": "constructor"
    },
    {
      "anonymous": false,
      "inputs": [
        {
          "indexed": false,
          "internalType": "uint256",
          "name": "ticketPrice",
          "type": "uint256"
        },
        {
          "indexed": false,
          "internalType": "uint256",
          "name": "minPlayers",
          "type": "uint256"
        },
        {
          "indexed": false,
          "internalType": "uint256",
          "name": "timestamp",
          "type": "uint256"
        }
      ],
      "name": "LotteryStarted",
      "type": "event"
    },
    {
      "anonymous": false,
      "inputs": [
        {
          "indexed": false,
          "internalType": "uint256",
          "name": "timestamp",
          "type": "uint256"
        }
      ],
      "name": "LotteryStopped",
      "type": "event"
    },
    {
      "anonymous": false,
      "inputs": [
        {
          "indexed": true,
          "internalType": "address",
          "name": "winner",
          "type": "address"
        },
        {
          "indexed": false,
          "internalType": "uint256",
          "name": "amount",
          "type": "uint256"
        }
      ],
      "name": "PayoutPending",
      "type": "event"
    },
    {
      "anonymous": false,
      "inputs": [
        {
          "indexed": false,
          "internalType": "uint256",
          "name": "oldPrice",
          "type": "uint256"
        },
        {
          "indexed": false,
          "internalType": "uint256",
          "name": "newPrice",
          "type": "uint256"
        },
        {
          "indexed": false,
          "internalType": "uint256",
          "name": "timestamp",
          "type": "uint256"
        }
      ],
      "name": "TicketPriceChanged",
      "type": "event"
    },
    {
      "anonymous": false,
      "inputs": [
        {
          "indexed": true,
          "internalType": "address",
          "name": "buyer",
          "type": "address"
        },
        {
          "indexed": true,
          "internalType": "uint256",
          "name": "index",
          "type": "uint256"
        },
        {
          "indexed": false,
          "internalType": "uint256",
          "name": "amount",
          "type": "uint256"
        }
      ],
      "name": "TicketPurchased",
      "type": "event"
    },
    {
      "anonymous": false,
      "inputs": [
        {
          "indexed": true,
          "internalType": "address",
          "name": "winner",
          "type": "address"
        },
        {
          "indexed": false,
          "internalType": "uint256",
          "name": "amount",
          "type": "uint256"
        }
      ],
      "name": "WinnerSelected",
      "type": "event"
    },
    {
      "anonymous": false,
      "inputs": [
        {
          "indexed": true,
          "internalType": "address",
          "name": "recipient",
          "type": "address"
        },
        {
          "indexed": false,
          "internalType": "uint256",
          "name": "amount",
          "type": "uint256"
        }
      ],
      "name": "Withdrawn",
      "type": "event"
    },
    {
      "inputs": [
        {
          "internalType": "address",
          "name": "",
          "type": "address"
        }
      ],
      "name": "hasTicket",
      "outputs": [
        {
          "internalType": "bool",
          "name": "",
          "type": "bool"
        }
      ],
      "stateMutability": "view",
      "type": "function",
      "constant": true
    },
    {
      "inputs": [],
      "name": "isActive",
      "outputs": [
        {
          "internalType": "bool",
          "name": "",
          "type": "bool"
        }
      ],
      "stateMutability": "view",
      "type": "function",
      "constant": true
    },
    {
      "inputs": [],
      "name": "minPlayers",
      "outputs": [
        {
          "internalType": "uint256",
          "name": "",
          "type": "uint256"
        }
      ],
      "stateMutability": "view",
      "type": "function",
      "constant": true
    },
    {
      "inputs": [],
      "name": "owner",
      "outputs": [
        {
          "internalType": "address",
          "name": "",
          "type": "address"
        }
      ],
      "stateMutability": "view",
      "type": "function",
      "constant": true
    },
    {
      "inputs": [
        {
          "internalType": "address",
          "name": "",
          "type": "address"
        }
      ],
      "name": "pendingWinnings",
      "outputs": [
        {
          "internalType": "uint256",
          "name": "",
          "type": "uint256"
        }
      ],
      "stateMutability": "view",
      "type": "function",
      "constant": true
    },
    {
      "inputs": [
        {
          "internalType": "uint256",
          "name": "",
          "type": "uint256"
        }
      ],
      "name": "players",
      "outputs": [
        {
          "internalType": "address",
          "name": "",
          "type": "address"
        }
      ],
      "stateMutability": "view",
      "type": "function",
      "constant": true
    },
    {
      "inputs": [],
      "name": "ticketPrice",
      "outputs": [
        {
          "internalType": "uint256",
          "name": "",
          "type": "uint256"
        }
      ],
      "stateMutability": "view",
      "type": "function",
      "constant": true
    },
    {
      "inputs": [],
      "name": "totalPot",
      "outputs": [
        {
          "internalType": "uint256",
          "name": "",
          "type": "uint256"
        }
      ],
      "stateMutability": "view",
      "type": "function",
      "constant": true
    },
    {
      "inputs": [],
      "name": "winner",
      "outputs": [
        {
          "internalType": "address",
          "name": "",
          "type": "address"
        }
      ],
      "stateMutability": "view",
      "type": "function",
      "constant": true
    },
    {
      "inputs": [
        {
          "internalType": "uint256",
          "name": "newPriceInWei",
          "type": "uint256"
        }
      ],
      "name": "setTicketPrice",
      "outputs": [],
      "stateMutability": "nonpayable",
      "type": "function"
    },
    {
      "inputs": [
        {
          "internalType": "uint256",
          "name": "_minPlayers",
          "type": "uint256"
        }
      ],
      "name": "setMinPlayers",
      "outputs": [],
      "stateMutability": "nonpayable",
      "type": "function"
    },
    {
      "inputs": [],
      "name": "buyTicket",
      "outputs": [],
      "stateMutability": "payable",
      "type": "function",
      "payable": true
    },
    {
      "inputs": [],
      "name": "drawWinner",
      "outputs": [],
      "stateMutability": "nonpayable",
      "type": "function"
    },
    {
      "inputs": [],
      "name": "withdrawPrize",
      "outputs": [],
      "stateMutability": "nonpayable",
      "type": "function"
    },
    {
      "inputs": [
        {
          "internalType": "address payable",
          "name": "to",
          "type": "address"
        }
      ],
      "name": "withdrawAllByOwner",
      "outputs": [],
      "stateMutability": "nonpayable",
      "type": "function"
    },
    {
      "inputs": [],
      "name": "startLottery",
      "outputs": [],
      "stateMutability": "nonpayable",
      "type": "function"
    },
    {
      "inputs": [],
      "name": "stopLottery",
      "outputs": [],
      "stateMutability": "nonpayable",
      "type": "function"
    },
    {
      "inputs": [],
      "name": "getPlayers",
      "outputs": [
        {
          "internalType": "address[]",
          "name": "",
          "type": "address[]"
        }
      ],
      "stateMutability": "view",
      "type": "function",
      "constant": true
    },
    {
      "inputs": [],
      "name": "getPlayersCount",
      "outputs": [
        {
          "internalType": "uint256",
          "name": "",
          "type": "uint256"
        }
      ],
      "stateMutability": "view",
      "type": "function",
      "constant": true
    },
    {
      "inputs": [],
      "name": "getBalance",
      "outputs": [
        {
          "internalType": "uint256",
          "name": "",
          "type": "uint256"
        }
      ],
      "stateMutability": "view",
      "type": "function",
      "constant": true
    },
    {
      "inputs": [],
      "name": "getStatus",
      "outputs": [
        {
          "internalType": "bool",
          "name": "active",
          "type": "bool"
        },
        {
          "internalType": "uint256",
          "name": "price",
          "type": "uint256"
        },
        {
          "internalType": "uint256",
          "name": "minP",
          "type": "uint256"
        },
        {
          "internalType": "uint256",
          "name": "playersCount",
          "type": "uint256"
        },
        {
          "internalType": "address",
          "name": "currentWinner",
          "type": "address"
        }
      ],
      "stateMutability": "view",
      "type": "function",
      "constant": true
    }
  ],
  "bytecode": "0x60806040525f600460146101000a81548160ff0219169083151502179055503480156200002a575f80fd5b50604051620028bf380380620028bf83398181016040528101906200005091906200016b565b5f821162000095576040517f08c379a00000000000000000000000000000000000000000000000000000000081526004016200008c906200020e565b60405180910390fd5b5f8111620000da576040517f08c379a0000000000000000000000000000000000000000000000000000000008152600401620000d1906200027c565b60405180910390fd5b3360035f6101000a81548173ffffffffffffffffffffffffffffffffffffffff021916908373ffffffffffffffffffffffffffffffffffffffff160217905550815f819055508060018190555050506200029c565b5f80fd5b5f819050919050565b620001478162000133565b811462000152575f80fd5b50565b5f8151905062000165816200013c565b92915050565b5f80604083850312156200018457620001836200012f565b5b5f620001938582860162000155565b9250506020620001a68582860162000155565b9150509250929050565b5f82825260208201905092915050565b7f5469636b6574207072696365206d757374206265203e203000000000000000005f82015250565b5f620001f6601883620001b0565b91506200020382620001c0565b602082019050919050565b5f6020820190508181035f8301526200022781620001e8565b9050919050565b7f6d696e506c6179657273206d757374206265203e2030000000000000000000005f82015250565b5f62000264601683620001b0565b915062000271826200022e565b602082019050919050565b5f6020820190508181035f830152620002958162000256565b9050919050565b61261580620002aa5f395ff3fe608060405260043610610129575f3560e01c806368463349116100aa578063d5c624981161006e578063d5c6249814610379578063dd9633ce1461038f578063dfbf53ae146103b7578063e2142fde146103e1578063edca914c1461041d578063f71d96cb1461042757610129565b806368463349146102a95780638b5b9ccc146102e55780638da5cb5b1461030f578063a76594bf14610339578063b2185bb11461036357610129565b806324b570a9116100f157806324b570a9146101e95780632770c8951461021357806348d37a581461023d5780634e380eba146102535780634e69d5601461027b57610129565b806312065fe01461012d5780631209b1f6146101575780631598165014610181578063160344e2146101a957806322f3e2d4146101bf575b5f80fd5b348015610138575f80fd5b50610141610463565b60405161014e91906118d1565b60405180910390f35b348015610162575f80fd5b5061016b61046a565b60405161017891906118d1565b60405180910390f35b34801561018c575f80fd5b506101a760048036038101906101a29190611918565b61046f565b005b3480156101b4575f80fd5b506101bd610599565b005b3480156101ca575f80fd5b506101d3610738565b6040516101e0919061195d565b60405180910390f35b3480156101f4575f80fd5b506101fd61074b565b60405161020a91906118d1565b60405180910390f35b34801561021e575f80fd5b50610227610751565b60405161023491906118d1565b60405180910390f35b348015610248575f80fd5b50610251610757565b005b34801561025e575f80fd5b50610279600480360381019061027491906119d0565b6109ab565b005b348015610286575f80fd5b5061028f610c5a565b6040516102a0959493929190611a1b565b60405180910390f35b3480156102b4575f80fd5b506102cf60048036038101906102ca9190611a96565b610cad565b6040516102dc91906118d1565b60405180910390f35b3480156102f0575f80fd5b506102f9610cc2565b6040516103069190611b78565b60405180910390f35b34801561031a575f80fd5b50610323610d4d565b6040516103309190611b98565b60405180910390f35b348015610344575f80fd5b5061034d610d72565b60405161035a91906118d1565b60405180910390f35b34801561036e575f80fd5b50610377610d7e565b005b348015610384575f80fd5b5061038d611256565b005b34801561039a575f80fd5b506103b560048036038101906103b09190611918565b61144d565b005b3480156103c2575f80fd5b506103cb611528565b6040516103d89190611b98565b60405180910390f35b3480156103ec575f80fd5b5061040760048036038101906104029190611a96565b61154d565b604051610414919061195d565b60405180910390f35b61042561156a565b005b348015610432575f80fd5b5061044d60048036038101906104489190611918565b611845565b60405161045a9190611b98565b60405180910390f35b5f47905090565b5f5481565b60035f9054906101000a900473ffffffffffffffffffffffffffffffffffffffff1673ffffffffffffffffffffffffffffffffffffffff163373ffffffffffffffffffffffffffffffffffffffff16146104fe576040517f08c379a00000000000000000000000000000000000000000000000000000000081526004016104f590611c0b565b60405180910390fd5b600460149054906101000a900460ff161561054e576040517f08c379a000000000000000000000000000000000000000000000000000000000815260040161054590611c99565b60405180910390fd5b5f80549050815f819055507fdcefbf936a5a84ea694d7c34335e03240bee5f52df414c3b11bc2d6cfd9f3245815f544260405161058d93929190611cb7565b60405180910390a15050565b60035f9054906101000a900473ffffffffffffffffffffffffffffffffffffffff1673ffffffffffffffffffffffffffffffffffffffff163373ffffffffffffffffffffffffffffffffffffffff1614610628576040517f08c379a000000000000000000000000000000000000000000000000000000000815260040161061f90611c0b565b60405180910390fd5b600460149054906101000a900460ff1615610678576040517f08c379a000000000000000000000000000000000000000000000000000000000815260040161066f90611d36565b60405180910390fd5b5f73ffffffffffffffffffffffffffffffffffffffff1660045f9054906101000a900473ffffffffffffffffffffffffffffffffffffffff1673ffffffffffffffffffffffffffffffffffffffff1614610707576040517f08c379a00000000000000000000000000000000000000000000000000000000081526004016106fe90611dc4565b60405180910390fd5b6001600460146101000a81548160ff02191690831515021790555060025f61072f9190611880565b5f600581905550565b600460149054906101000a900460ff1681565b60055481565b60015481565b5f60065f3373ffffffffffffffffffffffffffffffffffffffff1673ffffffffffffffffffffffffffffffffffffffff1681526020019081526020015f205490505f81116107da576040517f08c379a00000000000000000000000000000000000000000000000000000000081526004016107d190611e2c565b60405180910390fd5b5f60065f3373ffffffffffffffffffffffffffffffffffffffff1673ffffffffffffffffffffffffffffffffffffffff1681526020019081526020015f20819055505f3373ffffffffffffffffffffffffffffffffffffffff168260405161084190611e77565b5f6040518083038185875af1925050503d805f811461087b576040519150601f19603f3d011682016040523d82523d5f602084013e610880565b606091505b50509050806108c4576040517f08c379a00000000000000000000000000000000000000000000000000000000081526004016108bb90611ed5565b60405180910390fd5b3373ffffffffffffffffffffffffffffffffffffffff167f7084f5476618d8e60b11ef0d7d3f06914655adb8793e28ff7f018d4c76d505d58360405161090a91906118d1565b60405180910390a260045f9054906101000a900473ffffffffffffffffffffffffffffffffffffffff1673ffffffffffffffffffffffffffffffffffffffff163373ffffffffffffffffffffffffffffffffffffffff16036109a7575f60045f6101000a81548173ffffffffffffffffffffffffffffffffffffffff021916908373ffffffffffffffffffffffffffffffffffffffff1602179055505b5050565b60035f9054906101000a900473ffffffffffffffffffffffffffffffffffffffff1673ffffffffffffffffffffffffffffffffffffffff163373ffffffffffffffffffffffffffffffffffffffff1614610a3a576040517f08c379a0000000000000000000000000000000000000000000000000000000008152600401610a3190611c0b565b60405180910390fd5b600460149054906101000a900460ff1615610a8a576040517f08c379a0000000000000000000000000000000000000000000000000000000008152600401610a8190611f63565b60405180910390fd5b5f73ffffffffffffffffffffffffffffffffffffffff1660045f9054906101000a900473ffffffffffffffffffffffffffffffffffffffff1673ffffffffffffffffffffffffffffffffffffffff1614610b19576040517f08c379a0000000000000000000000000000000000000000000000000000000008152600401610b1090611ff1565b60405180910390fd5b5f4790505f8111610b5f576040517f08c379a0000000000000000000000000000000000000000000000000000000008152600401610b5690612059565b60405180910390fd5b5f8273ffffffffffffffffffffffffffffffffffffffff1682604051610b8490611e77565b5f6040518083038185875af1925050503d805f8114610bbe576040519150601f19603f3d011682016040523d82523d5f602084013e610bc3565b606091505b5050905080610c07576040517f08c379a0000000000000000000000000000000000000000000000000000000008152600401610bfe906120c1565b60405180910390fd5b8273ffffffffffffffffffffffffffffffffffffffff167f7084f5476618d8e60b11ef0d7d3f06914655adb8793e28ff7f018d4c76d505d583604051610c4d91906118d1565b60405180910390a2505050565b5f805f805f600460149054906101000a900460ff1694505f5493506001549250600280549050915060045f9054906101000a900473ffffffffffffffffffffffffffffffffffffffff1690509091929394565b6006602052805f5260405f205f915090505481565b60606002805480602002602001604051908101604052809291908181526020018280548015610d4357602002820191905f5260205f20905b815f9054906101000a900473ffffffffffffffffffffffffffffffffffffffff1673ffffffffffffffffffffffffffffffffffffffff1681526020019060010190808311610cfa575b5050505050905090565b60035f9054906101000a900473ffffffffffffffffffffffffffffffffffffffff1681565b5f600280549050905090565b60035f9054906101000a900473ffffffffffffffffffffffffffffffffffffffff1673ffffffffffffffffffffffffffffffffffffffff163373ffffffffffffffffffffffffffffffffffffffff1614610e0d576040517f08c379a0000000000000000000000000000000000000000000000000000000008152600401610e0490611c0b565b60405180910390fd5b600460149054906101000a900460ff16610e5c576040517f08c379a0000000000000000000000000000000000000000000000000000000008152600401610e5390612129565b60405180910390fd5b6001546002805490501015610ea6576040517f08c379a0000000000000000000000000000000000000000000000000000000008152600401610e9d90612191565b60405180910390fd5b5f73ffffffffffffffffffffffffffffffffffffffff1660045f9054906101000a900473ffffffffffffffffffffffffffffffffffffffff1673ffffffffffffffffffffffffffffffffffffffff1614610f35576040517f08c379a0000000000000000000000000000000000000000000000000000000008152600401610f2c906121f9565b60405180910390fd5b5f6002805490504243600280549050604051602001610f5693929190612237565b604051602081830303815290604052805190602001205f1c610f7891906122a0565b905060028181548110610f8e57610f8d6122d0565b5b905f5260205f20015f9054906101000a900473ffffffffffffffffffffffffffffffffffffffff1660045f6101000a81548173ffffffffffffffffffffffffffffffffffffffff021916908373ffffffffffffffffffffffffffffffffffffffff16021790555060055460065f60045f9054906101000a900473ffffffffffffffffffffffffffffffffffffffff1673ffffffffffffffffffffffffffffffffffffffff1673ffffffffffffffffffffffffffffffffffffffff1681526020019081526020015f208190555060045f9054906101000a900473ffffffffffffffffffffffffffffffffffffffff1673ffffffffffffffffffffffffffffffffffffffff167f229a32881b201292cefc8f71be8d0ef41d85bb853d0efda5ea4aa97aafe1de366005546040516110c391906118d1565b60405180910390a260045f9054906101000a900473ffffffffffffffffffffffffffffffffffffffff1673ffffffffffffffffffffffffffffffffffffffff167f75060f9e79552df167b73353fee6237a75bb5ba8ea022f77224e32f152138bcb60055460405161113491906118d1565b60405180910390a25f6005819055505f5b6002805490508110156111f4575f60075f6002848154811061116a576111696122d0565b5b905f5260205f20015f9054906101000a900473ffffffffffffffffffffffffffffffffffffffff1673ffffffffffffffffffffffffffffffffffffffff1673ffffffffffffffffffffffffffffffffffffffff1681526020019081526020015f205f6101000a81548160ff02191690831515021790555080806111ec9061232a565b915050611145565b5060025f6112029190611880565b5f600460146101000a81548160ff0219169083151502179055507f2461588b75eca9222e16a307ce162e182fce07b93bea67066d83897a9ba71ccf4260405161124b91906118d1565b60405180910390a150565b60035f9054906101000a900473ffffffffffffffffffffffffffffffffffffffff1673ffffffffffffffffffffffffffffffffffffffff163373ffffffffffffffffffffffffffffffffffffffff16146112e5576040517f08c379a00000000000000000000000000000000000000000000000000000000081526004016112dc90611c0b565b60405180910390fd5b600460149054906101000a900460ff16611334576040517f08c379a000000000000000000000000000000000000000000000000000000000815260040161132b906123bb565b60405180910390fd5b5f600460146101000a81548160ff0219169083151502179055505f5b6002805490508110156113ff575f60075f60028481548110611375576113746122d0565b5b905f5260205f20015f9054906101000a900473ffffffffffffffffffffffffffffffffffffffff1673ffffffffffffffffffffffffffffffffffffffff1673ffffffffffffffffffffffffffffffffffffffff1681526020019081526020015f205f6101000a81548160ff02191690831515021790555080806113f79061232a565b915050611350565b5060025f61140d9190611880565b5f6005819055507f2461588b75eca9222e16a307ce162e182fce07b93bea67066d83897a9ba71ccf4260405161144391906118d1565b60405180910390a1565b60035f9054906101000a900473ffffffffffffffffffffffffffffffffffffffff1673ffffffffffffffffffffffffffffffffffffffff163373ffffffffffffffffffffffffffffffffffffffff16146114dc576040517f08c379a00000000000000000000000000000000000000000000000000000000081526004016114d390611c0b565b60405180910390fd5b5f811161151e576040517f08c379a000000000000000000000000000000000000000000000000000000000815260040161151590612423565b60405180910390fd5b8060018190555050565b60045f9054906101000a900473ffffffffffffffffffffffffffffffffffffffff1681565b6007602052805f5260405f205f915054906101000a900460ff1681565b600460149054906101000a900460ff166115b9576040517f08c379a00000000000000000000000000000000000000000000000000000000081526004016115b090612129565b60405180910390fd5b60035f9054906101000a900473ffffffffffffffffffffffffffffffffffffffff1673ffffffffffffffffffffffffffffffffffffffff163373ffffffffffffffffffffffffffffffffffffffff1603611648576040517f08c379a000000000000000000000000000000000000000000000000000000000815260040161163f9061248b565b60405180910390fd5b5f54341461168b576040517f08c379a0000000000000000000000000000000000000000000000000000000008152600401611682906124f3565b60405180910390fd5b60075f3373ffffffffffffffffffffffffffffffffffffffff1673ffffffffffffffffffffffffffffffffffffffff1681526020019081526020015f205f9054906101000a900460ff1615611715576040517f08c379a000000000000000000000000000000000000000000000000000000000815260040161170c9061255b565b60405180910390fd5b600160075f3373ffffffffffffffffffffffffffffffffffffffff1673ffffffffffffffffffffffffffffffffffffffff1681526020019081526020015f205f6101000a81548160ff021916908315150217905550600233908060018154018082558091505060019003905f5260205f20015f9091909190916101000a81548173ffffffffffffffffffffffffffffffffffffffff021916908373ffffffffffffffffffffffffffffffffffffffff1602179055503460055f8282546117db9190612579565b9250508190555060016002805490506117f491906125ac565b3373ffffffffffffffffffffffffffffffffffffffff167f2a91574e12ad96234e84923e146b0946ecfb871cd8d5534dc1fdcbe87a7c01b35f5460405161183b91906118d1565b60405180910390a3565b60028181548110611854575f80fd5b905f5260205f20015f915054906101000a900473ffffffffffffffffffffffffffffffffffffffff1681565b5080545f8255905f5260205f209081019061189b919061189e565b50565b5b808211156118b5575f815f90555060010161189f565b5090565b5f819050919050565b6118cb816118b9565b82525050565b5f6020820190506118e45f8301846118c2565b92915050565b5f80fd5b6118f7816118b9565b8114611901575f80fd5b50565b5f81359050611912816118ee565b92915050565b5f6020828403121561192d5761192c6118ea565b5b5f61193a84828501611904565b91505092915050565b5f8115159050919050565b61195781611943565b82525050565b5f6020820190506119705f83018461194e565b92915050565b5f73ffffffffffffffffffffffffffffffffffffffff82169050919050565b5f61199f82611976565b9050919050565b6119af81611995565b81146119b9575f80fd5b50565b5f813590506119ca816119a6565b92915050565b5f602082840312156119e5576119e46118ea565b5b5f6119f2848285016119bc565b91505092915050565b5f611a0582611976565b9050919050565b611a15816119fb565b82525050565b5f60a082019050611a2e5f83018861194e565b611a3b60208301876118c2565b611a4860408301866118c2565b611a5560608301856118c2565b611a626080830184611a0c565b9695505050505050565b611a75816119fb565b8114611a7f575f80fd5b50565b5f81359050611a9081611a6c565b92915050565b5f60208284031215611aab57611aaa6118ea565b5b5f611ab884828501611a82565b91505092915050565b5f81519050919050565b5f82825260208201905092915050565b5f819050602082019050919050565b611af3816119fb565b82525050565b5f611b048383611aea565b60208301905092915050565b5f602082019050919050565b5f611b2682611ac1565b611b308185611acb565b9350611b3b83611adb565b805f5b83811015611b6b578151611b528882611af9565b9750611b5d83611b10565b925050600181019050611b3e565b5085935050505092915050565b5f6020820190508181035f830152611b908184611b1c565b905092915050565b5f602082019050611bab5f830184611a0c565b92915050565b5f82825260208201905092915050565b7f4f6e6c79206f776e65722063616e20646f2074686973000000000000000000005f82015250565b5f611bf5601683611bb1565b9150611c0082611bc1565b602082019050919050565b5f6020820190508181035f830152611c2281611be9565b9050919050565b7f53746f70206c6f7474657279206265666f7265206368616e67696e67207469635f8201527f6b65742070726963650000000000000000000000000000000000000000000000602082015250565b5f611c83602983611bb1565b9150611c8e82611c29565b604082019050919050565b5f6020820190508181035f830152611cb081611c77565b9050919050565b5f606082019050611cca5f8301866118c2565b611cd760208301856118c2565b611ce460408301846118c2565b949350505050565b7f4c6f747465727920616c726561647920616374697665000000000000000000005f82015250565b5f611d20601683611bb1565b9150611d2b82611cec565b602082019050919050565b5f6020820190508181035f830152611d4d81611d14565b9050919050565b7f436c6561722070726576696f75732077696e6e6572206265666f7265207374615f8201527f7274696e67000000000000000000000000000000000000000000000000000000602082015250565b5f611dae602583611bb1565b9150611db982611d54565b604082019050919050565b5f6020820190508181035f830152611ddb81611da2565b9050919050565b7f4e6f2077696e6e696e677320746f2077697468647261770000000000000000005f82015250565b5f611e16601783611bb1565b9150611e2182611de2565b602082019050919050565b5f6020820190508181035f830152611e4381611e0a565b9050919050565b5f81905092915050565b50565b5f611e625f83611e4a565b9150611e6d82611e54565b5f82019050919050565b5f611e8182611e57565b9150819050919050565b7f5472616e73666572206661696c656400000000000000000000000000000000005f82015250565b5f611ebf600f83611bb1565b9150611eca82611e8b565b602082019050919050565b5f6020820190508181035f830152611eec81611eb3565b9050919050565b7f53746f70206c6f7474657279206265666f7265206f776e6572207769746864725f8201527f6177000000000000000000000000000000000000000000000000000000000000602082015250565b5f611f4d602283611bb1565b9150611f5882611ef3565b604082019050919050565b5f6020820190508181035f830152611f7a81611f41565b9050919050565b7f43616e6e6f742077697468647261773a207061796f75742070656e64696e67205f8201527f6f722077696e6e65722065786973747300000000000000000000000000000000602082015250565b5f611fdb603083611bb1565b9150611fe682611f81565b604082019050919050565b5f6020820190508181035f83015261200881611fcf565b9050919050565b7f4e6f2066756e647320746f2077697468647261770000000000000000000000005f82015250565b5f612043601483611bb1565b915061204e8261200f565b602082019050919050565b5f6020820190508181035f83015261207081612037565b9050919050565b7f4f776e6572207769746864726177206661696c656400000000000000000000005f82015250565b5f6120ab601583611bb1565b91506120b682612077565b602082019050919050565b5f6020820190508181035f8301526120d88161209f565b9050919050565b7f4c6f7474657279206973206e6f742061637469766500000000000000000000005f82015250565b5f612113601583611bb1565b915061211e826120df565b602082019050919050565b5f6020820190508181035f83015261214081612107565b9050919050565b7f4e6f7420656e6f75676820706c617965727320696e206c6f74746572790000005f82015250565b5f61217b601d83611bb1565b915061218682612147565b602082019050919050565b5f6020820190508181035f8301526121a88161216f565b9050919050565b7f57696e6e657220616c72656164792073656c65637465640000000000000000005f82015250565b5f6121e3601783611bb1565b91506121ee826121af565b602082019050919050565b5f6020820190508181035f830152612210816121d7565b9050919050565b5f819050919050565b61223161222c826118b9565b612217565b82525050565b5f6122428286612220565b6020820191506122528285612220565b6020820191506122628284612220565b602082019150819050949350505050565b7f4e487b71000000000000000000000000000000000000000000000000000000005f52601260045260245ffd5b5f6122aa826118b9565b91506122b5836118b9565b9250826122c5576122c4612273565b5b828206905092915050565b7f4e487b71000000000000000000000000000000000000000000000000000000005f52603260045260245ffd5b7f4e487b71000000000000000000000000000000000000000000000000000000005f52601160045260245ffd5b5f612334826118b9565b91507fffffffffffffffffffffffffffffffffffffffffffffffffffffffffffffffff8203612366576123656122fd565b5b600182019050919050565b7f4c6f747465727920616c72656164792073746f707065640000000000000000005f82015250565b5f6123a5601783611bb1565b91506123b082612371565b602082019050919050565b5f6020820190508181035f8301526123d281612399565b9050919050565b7f6d696e506c6179657273206d757374206265203e2030000000000000000000005f82015250565b5f61240d601683611bb1565b9150612418826123d9565b602082019050919050565b5f6020820190508181035f83015261243a81612401565b9050919050565b7f4f776e65722063616e6e6f7420627579207469636b65747300000000000000005f82015250565b5f612475601883611bb1565b915061248082612441565b602082019050919050565b5f6020820190508181035f8301526124a281612469565b9050919050565b7f53656e64206578616374207469636b65742070726963650000000000000000005f82015250565b5f6124dd601783611bb1565b91506124e8826124a9565b602082019050919050565b5f6020820190508181035f83015261250a816124d1565b9050919050565b7f596f7520616c726561647920626f756768742061207469636b657400000000005f82015250565b5f612545601b83611bb1565b915061255082612511565b602082019050919050565b5f6020820190508181035f83015261257281612539565b9050919050565b5f612583826118b9565b915061258e836118b9565b92508282019050808211156125a6576125a56122fd565b5b92915050565b5f6125b6826118b9565b91506125c1836118b9565b92508282039050818111156125d9576125d86122fd565b5b9291505056fea26469706673582212209257666376637d04a40205094ce53efee3dd33202f6be3af299984be341a24e264736f6c63430008150033",
  "immutableReferences": {},
  "source": "// SPDX-License-Identifier: GPL-3.0\r\npragma solidity ^0.8.0;\r\n\r\ncontract BlockchainLottery {\r\n    uint public ticketPrice;\r\n    uint public minPlayers;\r\n    address[] public players;\r\n    address public owner;\r\n    address public winner;\r\n    bool public isActive = false;\r\n    uint public totalPot;\r\n\r\n    mapping(address => uint) public pendingWinnings;\r\n    mapping(address => bool) public hasTicket;\r\n\r\n    event TicketPurchased(address indexed buyer, uint indexed index, uint amount);\r\n    event Withdrawn(address indexed recipient, uint amount);\r\n    event WinnerSelected(address indexed winner, uint amount);\r\n    event LotteryStarted(uint ticketPrice, uint minPlayers, uint timestamp);\r\n    event LotteryStopped(uint timestamp);\r\n    event TicketPriceChanged(uint oldPrice, uint newPrice, uint timestamp);\r\n    event PayoutPending(address indexed winner, uint amount);\r\n\r\n    modifier onlyOwner() {\r\n        require(msg.sender == owner, \"Only owner can do this\");\r\n        _;\r\n    }\r\n\r\n    modifier lotteryActive() {\r\n        require(isActive, \"Lottery is not active\");\r\n        _;\r\n    }\r\n\r\n    constructor(uint _ticketPriceInWei, uint _minPlayers) {\r\n        require(_ticketPriceInWei > 0, \"Ticket price must be > 0\");\r\n        require(_minPlayers > 0, \"minPlayers must be > 0\");\r\n        owner = msg.sender;\r\n        ticketPrice = _ticketPriceInWei;\r\n        minPlayers = _minPlayers;\r\n    }\r\n\r\n    function setTicketPrice(uint newPriceInWei) external onlyOwner {\r\n        require(!isActive, \"Stop lottery before changing ticket price\");\r\n        uint oldPrice = ticketPrice;\r\n        ticketPrice = newPriceInWei;\r\n        emit TicketPriceChanged(oldPrice, ticketPrice, block.timestamp);\r\n    }\r\n\r\n    function setMinPlayers(uint _minPlayers) external onlyOwner {\r\n        require(_minPlayers > 0, \"minPlayers must be > 0\");\r\n        minPlayers = _minPlayers;\r\n    }\r\n\r\n    function buyTicket() external payable lotteryActive {\r\n        require(msg.sender != owner, \"Owner cannot buy tickets\");\r\n        require(msg.value == ticketPrice, \"Send exact ticket price\");\r\n\r\n        require(!hasTicket[msg.sender], \"You already bought a ticket\");\r\n        hasTicket[msg.sender] = true;\r\n\r\n        players.push(msg.sender);\r\n        totalPot += msg.value;\r\n\r\n        emit TicketPurchased(msg.sender, players.length - 1, ticketPrice);\r\n    }\r\n\r\n    function drawWinner() external onlyOwner lotteryActive {\r\n        require(players.length >= minPlayers, \"Not enough players in lottery\");\r\n        require(winner == address(0), \"Winner already selected\");\r\n\r\n        uint randomIndex = uint(\r\n            keccak256(abi.encodePacked(block.timestamp, block.number, players.length))\r\n        ) % players.length;\r\n\r\n        winner = players[randomIndex];\r\n        pendingWinnings[winner] = totalPot;\r\n\r\n        emit PayoutPending(winner, totalPot);\r\n        emit WinnerSelected(winner, totalPot);\r\n\r\n        totalPot = 0;\r\n        for (uint i = 0; i < players.length; i++) {\r\n            hasTicket[players[i]] = false;\r\n        }\r\n\r\n        delete players;\r\n        isActive = false;\r\n        emit LotteryStopped(block.timestamp);\r\n    }\r\n\r\n    function withdrawPrize() external {\r\n        uint winAmount = pendingWinnings[msg.sender];\r\n        require(winAmount > 0, \"No winnings to withdraw\");\r\n\r\n        pendingWinnings[msg.sender] = 0;\r\n        (bool ok, ) = payable(msg.sender).call{value: winAmount}(\"\");\r\n        require(ok, \"Transfer failed\");\r\n\r\n        emit Withdrawn(msg.sender, winAmount);\r\n\r\n        if (msg.sender == winner) {\r\n            winner = address(0);\r\n        }\r\n    }\r\n\r\n    function withdrawAllByOwner(address payable to) external onlyOwner {\r\n        require(!isActive, \"Stop lottery before owner withdraw\");\r\n        require(winner == address(0), \"Cannot withdraw: payout pending or winner exists\");\r\n\r\n        uint amount = address(this).balance;\r\n        require(amount > 0, \"No funds to withdraw\");\r\n        (bool ok, ) = to.call{value: amount}(\"\");\r\n        require(ok, \"Owner withdraw failed\");\r\n\r\n        emit Withdrawn(to, amount);\r\n    }\r\n\r\n    function startLottery() external onlyOwner {\r\n        require(!isActive, \"Lottery already active\");\r\n        require(winner == address(0), \"Clear previous winner before starting\");\r\n\r\n        isActive = true;\r\n        delete players;\r\n        totalPot = 0;\r\n    }\r\n\r\n    function stopLottery() external onlyOwner {\r\n        require(isActive, \"Lottery already stopped\");\r\n\r\n        isActive = false;\r\n        for (uint i = 0; i < players.length; i++) {\r\n            hasTicket[players[i]] = false;\r\n        }\r\n        delete players;\r\n        totalPot = 0;\r\n\r\n        emit LotteryStopped(block.timestamp);\r\n    }\r\n\r\n    function getPlayers() external view returns (address[] memory) {\r\n        return players;\r\n    }\r\n\r\n    function getPlayersCount() external view returns (uint) {\r\n        return players.length;\r\n    }\r\n\r\n    function getBalance() external view returns (uint) {\r\n        return address(this).balance;\r\n    }\r\n\r\n    function getStatus() external view returns (\r\n        bool active,\r\n        uint price,\r\n        uint minP,\r\n        uint playersCount,\r\n        address currentWinner\r\n    ) {\r\n        active = isActive;\r\n        price = ticketPrice;\r\n        minP = minPlayers;\r\n        playersCount = players.length;\r\n        currentWinner = winner;\r\n    }\r\n}",
  "sourcePath": "C:\\Users\\juliu\\Documents\\My Documents\\Univeras\\Blokchain\\SmartContract\\contracts\\BlockchainLottery.sol",
  "compiler": {
    "name": "solc",
    "version": "0.8.21+commit.d9974bed.Emscripten.clang"
  },
  "schemaVersion": "3.4.16",
  "updatedAt": "2025-12-09T10:48:26.473Z",
  "networkType": "ethereum",
  "devdoc": {
    "kind": "dev",
    "methods": {},
    "version": 1
  },
  "userdoc": {
    "kind": "user",
    "methods": {},
    "version": 1
  }
}