{
  "contractName": "BlockchainLottery",
  "abi": [
    {
      "inputs": [
        {
          "internalType": "uint256",
          "name": "_ticketPriceInWei",
          "type": "uint256"
        },
        {
          "internalType": "uint256",
          "name": "_minPlayers",
          "type": "uint256"
        }
      ],
      "stateMutability": "nonpayable",
      "type": "constructor"
    },
    {
      "anonymous": false,
      "inputs": [
        {
          "indexed": false,
          "internalType": "uint256",
          "name": "ticketPrice",
          "type": "uint256"
        },
        {
          "indexed": false,
          "internalType": "uint256",
          "name": "minPlayers",
          "type": "uint256"
        },
        {
          "indexed": false,
          "internalType": "uint256",
          "name": "timestamp",
          "type": "uint256"
        }
      ],
      "name": "LotteryStarted",
      "type": "event"
    },
    {
      "anonymous": false,
      "inputs": [
        {
          "indexed": false,
          "internalType": "uint256",
          "name": "timestamp",
          "type": "uint256"
        }
      ],
      "name": "LotteryStopped",
      "type": "event"
    },
    {
      "anonymous": false,
      "inputs": [
        {
          "indexed": true,
          "internalType": "address",
          "name": "winner",
          "type": "address"
        },
        {
          "indexed": false,
          "internalType": "uint256",
          "name": "amount",
          "type": "uint256"
        }
      ],
      "name": "PayoutPending",
      "type": "event"
    },
    {
      "anonymous": false,
      "inputs": [
        {
          "indexed": false,
          "internalType": "uint256",
          "name": "oldPrice",
          "type": "uint256"
        },
        {
          "indexed": false,
          "internalType": "uint256",
          "name": "newPrice",
          "type": "uint256"
        },
        {
          "indexed": false,
          "internalType": "uint256",
          "name": "timestamp",
          "type": "uint256"
        }
      ],
      "name": "TicketPriceChanged",
      "type": "event"
    },
    {
      "anonymous": false,
      "inputs": [
        {
          "indexed": true,
          "internalType": "address",
          "name": "buyer",
          "type": "address"
        },
        {
          "indexed": true,
          "internalType": "uint256",
          "name": "index",
          "type": "uint256"
        },
        {
          "indexed": false,
          "internalType": "uint256",
          "name": "amount",
          "type": "uint256"
        }
      ],
      "name": "TicketPurchased",
      "type": "event"
    },
    {
      "anonymous": false,
      "inputs": [
        {
          "indexed": true,
          "internalType": "address",
          "name": "winner",
          "type": "address"
        },
        {
          "indexed": false,
          "internalType": "uint256",
          "name": "amount",
          "type": "uint256"
        }
      ],
      "name": "WinnerSelected",
      "type": "event"
    },
    {
      "anonymous": false,
      "inputs": [
        {
          "indexed": true,
          "internalType": "address",
          "name": "recipient",
          "type": "address"
        },
        {
          "indexed": false,
          "internalType": "uint256",
          "name": "amount",
          "type": "uint256"
        }
      ],
      "name": "Withdrawn",
      "type": "event"
    },
    {
      "inputs": [],
      "name": "isActive",
      "outputs": [
        {
          "internalType": "bool",
          "name": "",
          "type": "bool"
        }
      ],
      "stateMutability": "view",
      "type": "function",
      "constant": true
    },
    {
      "inputs": [],
      "name": "minPlayers",
      "outputs": [
        {
          "internalType": "uint256",
          "name": "",
          "type": "uint256"
        }
      ],
      "stateMutability": "view",
      "type": "function",
      "constant": true
    },
    {
      "inputs": [],
      "name": "owner",
      "outputs": [
        {
          "internalType": "address",
          "name": "",
          "type": "address"
        }
      ],
      "stateMutability": "view",
      "type": "function",
      "constant": true
    },
    {
      "inputs": [
        {
          "internalType": "address",
          "name": "",
          "type": "address"
        }
      ],
      "name": "pendingWinnings",
      "outputs": [
        {
          "internalType": "uint256",
          "name": "",
          "type": "uint256"
        }
      ],
      "stateMutability": "view",
      "type": "function",
      "constant": true
    },
    {
      "inputs": [
        {
          "internalType": "uint256",
          "name": "",
          "type": "uint256"
        }
      ],
      "name": "players",
      "outputs": [
        {
          "internalType": "address",
          "name": "",
          "type": "address"
        }
      ],
      "stateMutability": "view",
      "type": "function",
      "constant": true
    },
    {
      "inputs": [],
      "name": "ticketPrice",
      "outputs": [
        {
          "internalType": "uint256",
          "name": "",
          "type": "uint256"
        }
      ],
      "stateMutability": "view",
      "type": "function",
      "constant": true
    },
    {
      "inputs": [],
      "name": "totalPot",
      "outputs": [
        {
          "internalType": "uint256",
          "name": "",
          "type": "uint256"
        }
      ],
      "stateMutability": "view",
      "type": "function",
      "constant": true
    },
    {
      "inputs": [],
      "name": "winner",
      "outputs": [
        {
          "internalType": "address",
          "name": "",
          "type": "address"
        }
      ],
      "stateMutability": "view",
      "type": "function",
      "constant": true
    },
    {
      "inputs": [
        {
          "internalType": "uint256",
          "name": "newPriceInWei",
          "type": "uint256"
        }
      ],
      "name": "setTicketPrice",
      "outputs": [],
      "stateMutability": "nonpayable",
      "type": "function"
    },
    {
      "inputs": [
        {
          "internalType": "uint256",
          "name": "_minPlayers",
          "type": "uint256"
        }
      ],
      "name": "setMinPlayers",
      "outputs": [],
      "stateMutability": "nonpayable",
      "type": "function"
    },
    {
      "inputs": [],
      "name": "buyTicket",
      "outputs": [],
      "stateMutability": "payable",
      "type": "function",
      "payable": true
    },
    {
      "inputs": [],
      "name": "drawWinner",
      "outputs": [],
      "stateMutability": "nonpayable",
      "type": "function"
    },
    {
      "inputs": [],
      "name": "withdrawPrize",
      "outputs": [],
      "stateMutability": "nonpayable",
      "type": "function"
    },
    {
      "inputs": [
        {
          "internalType": "address payable",
          "name": "to",
          "type": "address"
        }
      ],
      "name": "withdrawAllByOwner",
      "outputs": [],
      "stateMutability": "nonpayable",
      "type": "function"
    },
    {
      "inputs": [],
      "name": "startLottery",
      "outputs": [],
      "stateMutability": "nonpayable",
      "type": "function"
    },
    {
      "inputs": [],
      "name": "stopLottery",
      "outputs": [],
      "stateMutability": "nonpayable",
      "type": "function"
    },
    {
      "inputs": [],
      "name": "getPlayers",
      "outputs": [
        {
          "internalType": "address[]",
          "name": "",
          "type": "address[]"
        }
      ],
      "stateMutability": "view",
      "type": "function",
      "constant": true
    },
    {
      "inputs": [],
      "name": "getPlayersCount",
      "outputs": [
        {
          "internalType": "uint256",
          "name": "",
          "type": "uint256"
        }
      ],
      "stateMutability": "view",
      "type": "function",
      "constant": true
    },
    {
      "inputs": [],
      "name": "getBalance",
      "outputs": [
        {
          "internalType": "uint256",
          "name": "",
          "type": "uint256"
        }
      ],
      "stateMutability": "view",
      "type": "function",
      "constant": true
    },
    {
      "inputs": [],
      "name": "getStatus",
      "outputs": [
        {
          "internalType": "bool",
          "name": "active",
          "type": "bool"
        },
        {
          "internalType": "uint256",
          "name": "price",
          "type": "uint256"
        },
        {
          "internalType": "uint256",
          "name": "minP",
          "type": "uint256"
        },
        {
          "internalType": "uint256",
          "name": "playersCount",
          "type": "uint256"
        },
        {
          "internalType": "address",
          "name": "currentWinner",
          "type": "address"
        }
      ],
      "stateMutability": "view",
      "type": "function",
      "constant": true
    }
  ],
  "bytecode": "0x60806040525f600460146101000a81548160ff0219169083151502179055503480156200002a575f80fd5b50604051620025a7380380620025a783398181016040528101906200005091906200016b565b5f821162000095576040517f08c379a00000000000000000000000000000000000000000000000000000000081526004016200008c906200020e565b60405180910390fd5b5f8111620000da576040517f08c379a0000000000000000000000000000000000000000000000000000000008152600401620000d1906200027c565b60405180910390fd5b3360035f6101000a81548173ffffffffffffffffffffffffffffffffffffffff021916908373ffffffffffffffffffffffffffffffffffffffff160217905550815f819055508060018190555050506200029c565b5f80fd5b5f819050919050565b620001478162000133565b811462000152575f80fd5b50565b5f8151905062000165816200013c565b92915050565b5f80604083850312156200018457620001836200012f565b5b5f620001938582860162000155565b9250506020620001a68582860162000155565b9150509250929050565b5f82825260208201905092915050565b7f5469636b6574207072696365206d757374206265203e203000000000000000005f82015250565b5f620001f6601883620001b0565b91506200020382620001c0565b602082019050919050565b5f6020820190508181035f8301526200022781620001e8565b9050919050565b7f6d696e506c6179657273206d757374206265203e2030000000000000000000005f82015250565b5f62000264601683620001b0565b915062000271826200022e565b602082019050919050565b5f6020820190508181035f830152620002958162000256565b9050919050565b6122fd80620002aa5f395ff3fe60806040526004361061011e575f3560e01c8063684633491161009f578063d5c6249811610063578063d5c624981461036e578063dd9633ce14610384578063dfbf53ae146103ac578063edca914c146103d6578063f71d96cb146103e05761011e565b8063684633491461029e5780638b5b9ccc146102da5780638da5cb5b14610304578063a76594bf1461032e578063b2185bb1146103585761011e565b806324b570a9116100e657806324b570a9146101de5780632770c8951461020857806348d37a58146102325780634e380eba146102485780634e69d560146102705761011e565b806312065fe0146101225780631209b1f61461014c5780631598165014610176578063160344e21461019e57806322f3e2d4146101b4575b5f80fd5b34801561012d575f80fd5b5061013661041c565b6040516101439190611668565b60405180910390f35b348015610157575f80fd5b50610160610423565b60405161016d9190611668565b60405180910390f35b348015610181575f80fd5b5061019c600480360381019061019791906116af565b610428565b005b3480156101a9575f80fd5b506101b2610552565b005b3480156101bf575f80fd5b506101c861072f565b6040516101d591906116f4565b60405180910390f35b3480156101e9575f80fd5b506101f2610742565b6040516101ff9190611668565b60405180910390f35b348015610213575f80fd5b5061021c610748565b6040516102299190611668565b60405180910390f35b34801561023d575f80fd5b5061024661074e565b005b348015610253575f80fd5b5061026e60048036038101906102699190611767565b6109a2565b005b34801561027b575f80fd5b50610284610c51565b6040516102959594939291906117b2565b60405180910390f35b3480156102a9575f80fd5b506102c460048036038101906102bf919061182d565b610ca4565b6040516102d19190611668565b60405180910390f35b3480156102e5575f80fd5b506102ee610cb9565b6040516102fb919061190f565b60405180910390f35b34801561030f575f80fd5b50610318610d44565b604051610325919061192f565b60405180910390f35b348015610339575f80fd5b50610342610d69565b60405161034f9190611668565b60405180910390f35b348015610363575f80fd5b5061036c610d75565b005b348015610379575f80fd5b5061038261119b565b005b34801561038f575f80fd5b506103aa60048036038101906103a591906116af565b6112e0565b005b3480156103b7575f80fd5b506103c06113bb565b6040516103cd919061192f565b60405180910390f35b6103de6113e0565b005b3480156103eb575f80fd5b50610406600480360381019061040191906116af565b6115dc565b604051610413919061192f565b60405180910390f35b5f47905090565b5f5481565b60035f9054906101000a900473ffffffffffffffffffffffffffffffffffffffff1673ffffffffffffffffffffffffffffffffffffffff163373ffffffffffffffffffffffffffffffffffffffff16146104b7576040517f08c379a00000000000000000000000000000000000000000000000000000000081526004016104ae906119a2565b60405180910390fd5b600460149054906101000a900460ff1615610507576040517f08c379a00000000000000000000000000000000000000000000000000000000081526004016104fe90611a30565b60405180910390fd5b5f80549050815f819055507fdcefbf936a5a84ea694d7c34335e03240bee5f52df414c3b11bc2d6cfd9f3245815f544260405161054693929190611a4e565b60405180910390a15050565b60035f9054906101000a900473ffffffffffffffffffffffffffffffffffffffff1673ffffffffffffffffffffffffffffffffffffffff163373ffffffffffffffffffffffffffffffffffffffff16146105e1576040517f08c379a00000000000000000000000000000000000000000000000000000000081526004016105d8906119a2565b60405180910390fd5b600460149054906101000a900460ff1615610631576040517f08c379a000000000000000000000000000000000000000000000000000000000815260040161062890611acd565b60405180910390fd5b5f73ffffffffffffffffffffffffffffffffffffffff1660045f9054906101000a900473ffffffffffffffffffffffffffffffffffffffff1673ffffffffffffffffffffffffffffffffffffffff16146106c0576040517f08c379a00000000000000000000000000000000000000000000000000000000081526004016106b790611b5b565b60405180910390fd5b6001600460146101000a81548160ff02191690831515021790555060025f6106e89190611617565b5f6005819055507ffcdeb3394eefba8891818e18ed3c4d1aa8872705afa5819133971caea073dc1d5f546001544260405161072593929190611a4e565b60405180910390a1565b600460149054906101000a900460ff1681565b60055481565b60015481565b5f60065f3373ffffffffffffffffffffffffffffffffffffffff1673ffffffffffffffffffffffffffffffffffffffff1681526020019081526020015f205490505f81116107d1576040517f08c379a00000000000000000000000000000000000000000000000000000000081526004016107c890611bc3565b60405180910390fd5b5f60065f3373ffffffffffffffffffffffffffffffffffffffff1673ffffffffffffffffffffffffffffffffffffffff1681526020019081526020015f20819055505f3373ffffffffffffffffffffffffffffffffffffffff168260405161083890611c0e565b5f6040518083038185875af1925050503d805f8114610872576040519150601f19603f3d011682016040523d82523d5f602084013e610877565b606091505b50509050806108bb576040517f08c379a00000000000000000000000000000000000000000000000000000000081526004016108b290611c6c565b60405180910390fd5b3373ffffffffffffffffffffffffffffffffffffffff167f7084f5476618d8e60b11ef0d7d3f06914655adb8793e28ff7f018d4c76d505d5836040516109019190611668565b60405180910390a260045f9054906101000a900473ffffffffffffffffffffffffffffffffffffffff1673ffffffffffffffffffffffffffffffffffffffff163373ffffffffffffffffffffffffffffffffffffffff160361099e575f60045f6101000a81548173ffffffffffffffffffffffffffffffffffffffff021916908373ffffffffffffffffffffffffffffffffffffffff1602179055505b5050565b60035f9054906101000a900473ffffffffffffffffffffffffffffffffffffffff1673ffffffffffffffffffffffffffffffffffffffff163373ffffffffffffffffffffffffffffffffffffffff1614610a31576040517f08c379a0000000000000000000000000000000000000000000000000000000008152600401610a28906119a2565b60405180910390fd5b600460149054906101000a900460ff1615610a81576040517f08c379a0000000000000000000000000000000000000000000000000000000008152600401610a7890611cfa565b60405180910390fd5b5f73ffffffffffffffffffffffffffffffffffffffff1660045f9054906101000a900473ffffffffffffffffffffffffffffffffffffffff1673ffffffffffffffffffffffffffffffffffffffff1614610b10576040517f08c379a0000000000000000000000000000000000000000000000000000000008152600401610b0790611d88565b60405180910390fd5b5f4790505f8111610b56576040517f08c379a0000000000000000000000000000000000000000000000000000000008152600401610b4d90611df0565b60405180910390fd5b5f8273ffffffffffffffffffffffffffffffffffffffff1682604051610b7b90611c0e565b5f6040518083038185875af1925050503d805f8114610bb5576040519150601f19603f3d011682016040523d82523d5f602084013e610bba565b606091505b5050905080610bfe576040517f08c379a0000000000000000000000000000000000000000000000000000000008152600401610bf590611e58565b60405180910390fd5b8273ffffffffffffffffffffffffffffffffffffffff167f7084f5476618d8e60b11ef0d7d3f06914655adb8793e28ff7f018d4c76d505d583604051610c449190611668565b60405180910390a2505050565b5f805f805f600460149054906101000a900460ff1694505f5493506001549250600280549050915060045f9054906101000a900473ffffffffffffffffffffffffffffffffffffffff1690509091929394565b6006602052805f5260405f205f915090505481565b60606002805480602002602001604051908101604052809291908181526020018280548015610d3a57602002820191905f5260205f20905b815f9054906101000a900473ffffffffffffffffffffffffffffffffffffffff1673ffffffffffffffffffffffffffffffffffffffff1681526020019060010190808311610cf1575b5050505050905090565b60035f9054906101000a900473ffffffffffffffffffffffffffffffffffffffff1681565b5f600280549050905090565b60035f9054906101000a900473ffffffffffffffffffffffffffffffffffffffff1673ffffffffffffffffffffffffffffffffffffffff163373ffffffffffffffffffffffffffffffffffffffff1614610e04576040517f08c379a0000000000000000000000000000000000000000000000000000000008152600401610dfb906119a2565b60405180910390fd5b600460149054906101000a900460ff16610e53576040517f08c379a0000000000000000000000000000000000000000000000000000000008152600401610e4a90611ec0565b60405180910390fd5b6001546002805490501015610e9d576040517f08c379a0000000000000000000000000000000000000000000000000000000008152600401610e9490611f28565b60405180910390fd5b5f73ffffffffffffffffffffffffffffffffffffffff1660045f9054906101000a900473ffffffffffffffffffffffffffffffffffffffff1673ffffffffffffffffffffffffffffffffffffffff1614610f2c576040517f08c379a0000000000000000000000000000000000000000000000000000000008152600401610f2390611f90565b60405180910390fd5b5f6002805490504243600280549050604051602001610f4d93929190611fce565b604051602081830303815290604052805190602001205f1c610f6f9190612037565b905060028181548110610f8557610f84612067565b5b905f5260205f20015f9054906101000a900473ffffffffffffffffffffffffffffffffffffffff1660045f6101000a81548173ffffffffffffffffffffffffffffffffffffffff021916908373ffffffffffffffffffffffffffffffffffffffff16021790555060055460065f60045f9054906101000a900473ffffffffffffffffffffffffffffffffffffffff1673ffffffffffffffffffffffffffffffffffffffff1673ffffffffffffffffffffffffffffffffffffffff1681526020019081526020015f208190555060045f9054906101000a900473ffffffffffffffffffffffffffffffffffffffff1673ffffffffffffffffffffffffffffffffffffffff167f229a32881b201292cefc8f71be8d0ef41d85bb853d0efda5ea4aa97aafe1de366005546040516110ba9190611668565b60405180910390a260045f9054906101000a900473ffffffffffffffffffffffffffffffffffffffff1673ffffffffffffffffffffffffffffffffffffffff167f75060f9e79552df167b73353fee6237a75bb5ba8ea022f77224e32f152138bcb60055460405161112b9190611668565b60405180910390a25f60058190555060025f6111479190611617565b5f600460146101000a81548160ff0219169083151502179055507f2461588b75eca9222e16a307ce162e182fce07b93bea67066d83897a9ba71ccf426040516111909190611668565b60405180910390a150565b60035f9054906101000a900473ffffffffffffffffffffffffffffffffffffffff1673ffffffffffffffffffffffffffffffffffffffff163373ffffffffffffffffffffffffffffffffffffffff161461122a576040517f08c379a0000000000000000000000000000000000000000000000000000000008152600401611221906119a2565b60405180910390fd5b600460149054906101000a900460ff16611279576040517f08c379a0000000000000000000000000000000000000000000000000000000008152600401611270906120de565b60405180910390fd5b5f600460146101000a81548160ff02191690831515021790555060025f6112a09190611617565b5f6005819055507f2461588b75eca9222e16a307ce162e182fce07b93bea67066d83897a9ba71ccf426040516112d69190611668565b60405180910390a1565b60035f9054906101000a900473ffffffffffffffffffffffffffffffffffffffff1673ffffffffffffffffffffffffffffffffffffffff163373ffffffffffffffffffffffffffffffffffffffff161461136f576040517f08c379a0000000000000000000000000000000000000000000000000000000008152600401611366906119a2565b60405180910390fd5b5f81116113b1576040517f08c379a00000000000000000000000000000000000000000000000000000000081526004016113a890612146565b60405180910390fd5b8060018190555050565b60045f9054906101000a900473ffffffffffffffffffffffffffffffffffffffff1681565b600460149054906101000a900460ff1661142f576040517f08c379a000000000000000000000000000000000000000000000000000000000815260040161142690611ec0565b60405180910390fd5b60035f9054906101000a900473ffffffffffffffffffffffffffffffffffffffff1673ffffffffffffffffffffffffffffffffffffffff163373ffffffffffffffffffffffffffffffffffffffff16036114be576040517f08c379a00000000000000000000000000000000000000000000000000000000081526004016114b5906121ae565b60405180910390fd5b5f543414611501576040517f08c379a00000000000000000000000000000000000000000000000000000000081526004016114f890612216565b60405180910390fd5b600233908060018154018082558091505060019003905f5260205f20015f9091909190916101000a81548173ffffffffffffffffffffffffffffffffffffffff021916908373ffffffffffffffffffffffffffffffffffffffff1602179055503460055f8282546115729190612261565b92505081905550600160028054905061158b9190612294565b3373ffffffffffffffffffffffffffffffffffffffff167f2a91574e12ad96234e84923e146b0946ecfb871cd8d5534dc1fdcbe87a7c01b35f546040516115d29190611668565b60405180910390a3565b600281815481106115eb575f80fd5b905f5260205f20015f915054906101000a900473ffffffffffffffffffffffffffffffffffffffff1681565b5080545f8255905f5260205f20908101906116329190611635565b50565b5b8082111561164c575f815f905550600101611636565b5090565b5f819050919050565b61166281611650565b82525050565b5f60208201905061167b5f830184611659565b92915050565b5f80fd5b61168e81611650565b8114611698575f80fd5b50565b5f813590506116a981611685565b92915050565b5f602082840312156116c4576116c3611681565b5b5f6116d18482850161169b565b91505092915050565b5f8115159050919050565b6116ee816116da565b82525050565b5f6020820190506117075f8301846116e5565b92915050565b5f73ffffffffffffffffffffffffffffffffffffffff82169050919050565b5f6117368261170d565b9050919050565b6117468161172c565b8114611750575f80fd5b50565b5f813590506117618161173d565b92915050565b5f6020828403121561177c5761177b611681565b5b5f61178984828501611753565b91505092915050565b5f61179c8261170d565b9050919050565b6117ac81611792565b82525050565b5f60a0820190506117c55f8301886116e5565b6117d26020830187611659565b6117df6040830186611659565b6117ec6060830185611659565b6117f960808301846117a3565b9695505050505050565b61180c81611792565b8114611816575f80fd5b50565b5f8135905061182781611803565b92915050565b5f6020828403121561184257611841611681565b5b5f61184f84828501611819565b91505092915050565b5f81519050919050565b5f82825260208201905092915050565b5f819050602082019050919050565b61188a81611792565b82525050565b5f61189b8383611881565b60208301905092915050565b5f602082019050919050565b5f6118bd82611858565b6118c78185611862565b93506118d283611872565b805f5b838110156119025781516118e98882611890565b97506118f4836118a7565b9250506001810190506118d5565b5085935050505092915050565b5f6020820190508181035f83015261192781846118b3565b905092915050565b5f6020820190506119425f8301846117a3565b92915050565b5f82825260208201905092915050565b7f4f6e6c79206f776e65722063616e20646f2074686973000000000000000000005f82015250565b5f61198c601683611948565b915061199782611958565b602082019050919050565b5f6020820190508181035f8301526119b981611980565b9050919050565b7f53746f70206c6f7474657279206265666f7265206368616e67696e67207469635f8201527f6b65742070726963650000000000000000000000000000000000000000000000602082015250565b5f611a1a602983611948565b9150611a25826119c0565b604082019050919050565b5f6020820190508181035f830152611a4781611a0e565b9050919050565b5f606082019050611a615f830186611659565b611a6e6020830185611659565b611a7b6040830184611659565b949350505050565b7f4c6f747465727920616c726561647920616374697665000000000000000000005f82015250565b5f611ab7601683611948565b9150611ac282611a83565b602082019050919050565b5f6020820190508181035f830152611ae481611aab565b9050919050565b7f436c6561722070726576696f75732077696e6e6572206265666f7265207374615f8201527f7274696e67000000000000000000000000000000000000000000000000000000602082015250565b5f611b45602583611948565b9150611b5082611aeb565b604082019050919050565b5f6020820190508181035f830152611b7281611b39565b9050919050565b7f4e6f2077696e6e696e677320746f2077697468647261770000000000000000005f82015250565b5f611bad601783611948565b9150611bb882611b79565b602082019050919050565b5f6020820190508181035f830152611bda81611ba1565b9050919050565b5f81905092915050565b50565b5f611bf95f83611be1565b9150611c0482611beb565b5f82019050919050565b5f611c1882611bee565b9150819050919050565b7f5472616e73666572206661696c656400000000000000000000000000000000005f82015250565b5f611c56600f83611948565b9150611c6182611c22565b602082019050919050565b5f6020820190508181035f830152611c8381611c4a565b9050919050565b7f53746f70206c6f7474657279206265666f7265206f776e6572207769746864725f8201527f6177000000000000000000000000000000000000000000000000000000000000602082015250565b5f611ce4602283611948565b9150611cef82611c8a565b604082019050919050565b5f6020820190508181035f830152611d1181611cd8565b9050919050565b7f43616e6e6f742077697468647261773a207061796f75742070656e64696e67205f8201527f6f722077696e6e65722065786973747300000000000000000000000000000000602082015250565b5f611d72603083611948565b9150611d7d82611d18565b604082019050919050565b5f6020820190508181035f830152611d9f81611d66565b9050919050565b7f4e6f2066756e647320746f2077697468647261770000000000000000000000005f82015250565b5f611dda601483611948565b9150611de582611da6565b602082019050919050565b5f6020820190508181035f830152611e0781611dce565b9050919050565b7f4f776e6572207769746864726177206661696c656400000000000000000000005f82015250565b5f611e42601583611948565b9150611e4d82611e0e565b602082019050919050565b5f6020820190508181035f830152611e6f81611e36565b9050919050565b7f4c6f7474657279206973206e6f742061637469766500000000000000000000005f82015250565b5f611eaa601583611948565b9150611eb582611e76565b602082019050919050565b5f6020820190508181035f830152611ed781611e9e565b9050919050565b7f4e6f7420656e6f75676820706c617965727320696e206c6f74746572790000005f82015250565b5f611f12601d83611948565b9150611f1d82611ede565b602082019050919050565b5f6020820190508181035f830152611f3f81611f06565b9050919050565b7f57696e6e657220616c72656164792073656c65637465640000000000000000005f82015250565b5f611f7a601783611948565b9150611f8582611f46565b602082019050919050565b5f6020820190508181035f830152611fa781611f6e565b9050919050565b5f819050919050565b611fc8611fc382611650565b611fae565b82525050565b5f611fd98286611fb7565b602082019150611fe98285611fb7565b602082019150611ff98284611fb7565b602082019150819050949350505050565b7f4e487b71000000000000000000000000000000000000000000000000000000005f52601260045260245ffd5b5f61204182611650565b915061204c83611650565b92508261205c5761205b61200a565b5b828206905092915050565b7f4e487b71000000000000000000000000000000000000000000000000000000005f52603260045260245ffd5b7f4c6f747465727920616c72656164792073746f707065640000000000000000005f82015250565b5f6120c8601783611948565b91506120d382612094565b602082019050919050565b5f6020820190508181035f8301526120f5816120bc565b9050919050565b7f6d696e506c6179657273206d757374206265203e2030000000000000000000005f82015250565b5f612130601683611948565b915061213b826120fc565b602082019050919050565b5f6020820190508181035f83015261215d81612124565b9050919050565b7f4f776e65722063616e6e6f7420627579207469636b65747300000000000000005f82015250565b5f612198601883611948565b91506121a382612164565b602082019050919050565b5f6020820190508181035f8301526121c58161218c565b9050919050565b7f53656e64206578616374207469636b65742070726963650000000000000000005f82015250565b5f612200601783611948565b915061220b826121cc565b602082019050919050565b5f6020820190508181035f83015261222d816121f4565b9050919050565b7f4e487b71000000000000000000000000000000000000000000000000000000005f52601160045260245ffd5b5f61226b82611650565b915061227683611650565b925082820190508082111561228e5761228d612234565b5b92915050565b5f61229e82611650565b91506122a983611650565b92508282039050818111156122c1576122c0612234565b5b9291505056fea2646970667358221220fb47494011954238e1ab8d1c5c611617324a6bf72e11f29c652dabc66269407e64736f6c63430008150033",
  "immutableReferences": {},
  "source": "// SPDX-License-Identifier: GPL-3.0\r\npragma solidity ^0.8.0;\r\n\r\ncontract BlockchainLottery {\r\n    uint public ticketPrice;\r\n    uint public minPlayers;\r\n    address[] public players;\r\n    address public owner;\r\n    address public winner;\r\n    bool public isActive = false;\r\n    uint public totalPot;\r\n    mapping(address => uint) public pendingWinnings;\r\n\r\n    event TicketPurchased(address indexed buyer, uint indexed index, uint amount);\r\n    event Withdrawn(address indexed recipient, uint amount);\r\n    event WinnerSelected(address indexed winner, uint amount);\r\n    event LotteryStarted(uint ticketPrice, uint minPlayers, uint timestamp);\r\n    event LotteryStopped(uint timestamp);\r\n    event TicketPriceChanged(uint oldPrice, uint newPrice, uint timestamp);\r\n    event PayoutPending(address indexed winner, uint amount);\r\n\r\n    modifier onlyOwner() {\r\n        require(msg.sender == owner, \"Only owner can do this\");\r\n        _;\r\n    }\r\n\r\n    modifier lotteryActive() {\r\n        require(isActive, \"Lottery is not active\");\r\n        _;\r\n    }\r\n\r\n    constructor(uint _ticketPriceInWei, uint _minPlayers) {\r\n        require(_ticketPriceInWei > 0, \"Ticket price must be > 0\");\r\n        require(_minPlayers > 0, \"minPlayers must be > 0\");\r\n        owner = msg.sender;\r\n        ticketPrice = _ticketPriceInWei;\r\n        minPlayers = _minPlayers;\r\n    }\r\n\r\n    function setTicketPrice(uint newPriceInWei) external onlyOwner {\r\n        require(!isActive, \"Stop lottery before changing ticket price\");\r\n        uint oldPrice = ticketPrice;\r\n        ticketPrice = newPriceInWei;\r\n        emit TicketPriceChanged(oldPrice, ticketPrice, block.timestamp);\r\n    }\r\n\r\n    function setMinPlayers(uint _minPlayers) external onlyOwner {\r\n        require(_minPlayers > 0, \"minPlayers must be > 0\");\r\n        minPlayers = _minPlayers;\r\n    }\r\n\r\n    function buyTicket() external payable lotteryActive {\r\n        require(msg.sender != owner, \"Owner cannot buy tickets\");\r\n        require(msg.value == ticketPrice, \"Send exact ticket price\");\r\n\r\n        players.push(msg.sender);\r\n        totalPot += msg.value;\r\n\r\n        emit TicketPurchased(msg.sender, players.length - 1, ticketPrice);\r\n    }\r\n\r\n    function drawWinner() external onlyOwner lotteryActive {\r\n        require(players.length >= minPlayers, \"Not enough players in lottery\");\r\n        require(winner == address(0), \"Winner already selected\");\r\n\r\n        uint randomIndex = uint(\r\n            keccak256(abi.encodePacked(block.timestamp, block.number, players.length))\r\n        ) % players.length;\r\n\r\n        winner = players[randomIndex];\r\n        pendingWinnings[winner] = totalPot;\r\n\r\n        emit PayoutPending(winner, totalPot);\r\n        emit WinnerSelected(winner, totalPot);\r\n\r\n        totalPot = 0;\r\n        delete players;\r\n        isActive = false;\r\n        emit LotteryStopped(block.timestamp);\r\n    }\r\n\r\n    function withdrawPrize() external {\r\n        uint winAmount = pendingWinnings[msg.sender];\r\n        require(winAmount > 0, \"No winnings to withdraw\");\r\n\r\n        pendingWinnings[msg.sender] = 0;\r\n        (bool ok, ) = payable(msg.sender).call{value: winAmount}(\"\");\r\n        require(ok, \"Transfer failed\");\r\n\r\n        emit Withdrawn(msg.sender, winAmount);\r\n\r\n        if (msg.sender == winner) {\r\n            winner = address(0);\r\n        }\r\n    }\r\n\r\n    function withdrawAllByOwner(address payable to) external onlyOwner {\r\n        require(!isActive, \"Stop lottery before owner withdraw\");\r\n        require(winner == address(0), \"Cannot withdraw: payout pending or winner exists\");\r\n\r\n        uint amount = address(this).balance;\r\n        require(amount > 0, \"No funds to withdraw\");\r\n        (bool ok, ) = to.call{value: amount}(\"\");\r\n        require(ok, \"Owner withdraw failed\");\r\n\r\n        emit Withdrawn(to, amount);\r\n    }\r\n\r\n    function startLottery() external onlyOwner {\r\n        require(!isActive, \"Lottery already active\");\r\n        require(winner == address(0), \"Clear previous winner before starting\");\r\n\r\n        isActive = true;\r\n        delete players;\r\n        totalPot = 0;\r\n        emit LotteryStarted(ticketPrice, minPlayers, block.timestamp);\r\n    }\r\n\r\n    function stopLottery() external onlyOwner {\r\n        require(isActive, \"Lottery already stopped\");\r\n\r\n        isActive = false;\r\n        delete players;\r\n        totalPot = 0;\r\n\r\n        emit LotteryStopped(block.timestamp);\r\n    }\r\n\r\n    function getPlayers() external view returns (address[] memory) {\r\n        return players;\r\n    }\r\n\r\n    function getPlayersCount() external view returns (uint) {\r\n        return players.length;\r\n    }\r\n\r\n    function getBalance() external view returns (uint) {\r\n        return address(this).balance;\r\n    }\r\n\r\n    function getStatus() external view returns (\r\n        bool active,\r\n        uint price,\r\n        uint minP,\r\n        uint playersCount,\r\n        address currentWinner\r\n    ) {\r\n        active = isActive;\r\n        price = ticketPrice;\r\n        minP = minPlayers;\r\n        playersCount = players.length;\r\n        currentWinner = winner;\r\n    }\r\n}",
  "sourcePath": "C:\\Users\\juliu\\Documents\\My Documents\\Univeras\\Blokchain\\SmartContract\\contracts\\BlockchainLottery.sol",
  "compiler": {
    "name": "solc",
    "version": "0.8.21+commit.d9974bed.Emscripten.clang"
  },
  "schemaVersion": "3.4.16",
  "updatedAt": "2025-12-04T14:47:13.290Z",
  "networkType": "ethereum",
  "devdoc": {
    "kind": "dev",
    "methods": {},
    "version": 1
  },
  "userdoc": {
    "kind": "user",
    "methods": {},
    "version": 1
  }
}